:020000040800F2
:1000000000500020650C0008490200084B0200085F
:100010004D0200084F0200085102000800000000D5
:100020000000000000000000000000005302000873
:10003000550200080000000057020008590200089D
:10004000AD0C0008AD0C0008AD0C0008AD0C0008AC
:10005000AD0C0008AD0C0008AD0C0008AD0C00089C
:10006000AD0C0008AD0C0008AD0C0008AD0C00088C
:10007000AD0C0008AD0C0008AD0C0008AD0C00087C
:10008000AD0C0008AD0C0008AD0C0008AD0C00086C
:10009000AD0C0008AD0C0008AD0C0008AD0C00085C
:1000A000AD0C0008AD0C0008AD0C0008AD0C00084C
:1000B000AD0C0008AD0C0008AD0C0008AD0C00083C
:1000C000AD0C0008AD0C0008AD0C0008AD0C00082C
:1000D000AD0C0008AD0C0008AD0C0008AD0C00081C
:1000E000AD0C0008AD0C0008AD0C000800000000CD
:1000F0000000000000000000000000000000000000
:0C01000000000000000000005FF808F1A3
:10010C0010B5054C237833B9044B13B10448AFF345
:10011C0000800123237010BD0C00002000000000A3
:10012C00080D000808B5034B1BB103490348AFF396
:10013C00008008BD0000000010000020080D000821
:10014C0070B588B004AD002404940594069407940B
:10015C00184B9A6942F010029A619A6902F01002E7
:10016C000192019A9A6942F020029A619A6902F00E
:10017C0020020292029A9A6942F004029A619B69E7
:10018C0003F004030393039B0B4E22464FF40051E0
:10019C00304600F0E7FC4FF4005304930123059321
:1001AC000694022307932946304600F0D1FB08B091
:1001BC0070BD00BF001002400010014072B6FEE797
:1001CC0010B590B006AC28220021204600F069FD45
:1001DC000023019302930393049305930223069344
:1001EC0001230A9310230B93204600F0C9F860B941
:1001FC000F2301930021029103910491059101A811
:10020C0000F0F0FA18B910B010BDFFF7D7FFFFF7E8
:10021C00D5FF000008B500F065F8FFF7D1FFFFF738
:10022C008FFF4FF40051044800F0A2FC4FF4FA7019
:10023C0000F07CF8F5E700BF00100140FEE7FEE798
:10024C00FEE7FEE7FEE770477047704708B500F021
:10025C005BF808BD82B00E4B9A6942F001029A61BC
:10026C009A6902F001020092009ADA6942F0805217
:10027C00DA61DB6903F080530193019B054A5368F3
:10028C0023F0E06343F00073536002B0704700BF8B
:10029C00001002400000014010B504460E4B1868D7
:1002AC000E4B1A784FF47A73B3FBF2F3B0FBF3F006
:1002BC0000F0BCFC68B90F2C01D901200AE0002227
:1002CC0021464FF0FF3000F0A1FC054B1C600020D4
:1002DC0000E0012010BD00BF08000020000000203D
:1002EC000400002008B5074A136843F0100313609C
:1002FC00032000F079FC0F20FFF7CEFFFFF7AAFFD9
:10030C00002008BD00200240034A1168034B1B78F3
:10031C000B441360704700BF280000200000002031
:10032C00014B1868704700BF2800002038B5044600
:10033C00FFF7F6FF0546B4F1FF3F02D0044B1B78E4
:10034C001C44FFF7EDFF401BA042FAD338BD00BFA1
:10035C000000002082B0084B1B68084AA2FB032354
:10036C005B0A00FB03F3019300BF019B5A1E019231
:10037C00002BF9D102B0704708000020D34D621059
:10038C00002800F0F18170B582B00446036813F0C8
:10039C00010F2CD0994B5B6803F00C03042B1DD080
:1003AC00964B5B6803F00C03082B12D06368B3F513
:1003BC00803F41D0002B55D103F1804303F504332A
:1003CC001A6822F480321A601A6822F480221A60A9
:1003DC0037E08A4B5B6813F4803FE7D0874B1B6890
:1003EC0013F4003F03D06368002B00F0BF81236837
:1003FC0013F0020F75D0814B5B6813F00C0F5FD0BC
:10040C007E4B5B6803F00C03082B54D02369002B44
:10041C0000F08A807A4B01221A60FFF781FF0546B3
:10042C00764B1B6813F0020F75D1FFF779FF401B59
:10043C000228F5D903209EE1704A136843F48033F7
:10044C001360636843B3FFF76BFF05466B4B1B6888
:10045C0013F4003FCBD1FFF763FF401B6428F5D9A1
:10046C00032088E1B3F5A02F09D0644B1A6822F45D
:10047C0080321A601A6822F480221A60E1E703F1D4
:10048C008043A3F53C331A6842F480221A601A6840
:10049C0042F480321A60D4E7FFF742FF0546574B0F
:1004AC001B6813F4003FA2D0FFF73AFF401B6428EF
:1004BC00F5D903205FE1514B5B6813F4803FA5D164
:1004CC004E4B1B6813F0020F03D02369012B40F035
:1004DC004F814A4A136823F0F803616943EAC10368
:1004EC001360236813F0080F33D0A369002B5CD082
:1004FC00434B0122C3F88024FFF712FF05463F4B04
:10050C005B6A13F0020F21D1FFF70AFF401B022890
:10051C00F5D903202FE1394A136823F0F8036169F8
:10052C0043EAC1031360DCE7354B00221A60FFF786
:10053C00F7FE0546314B1B6813F0020FD1D0FFF7C5
:10054C00EFFE401B0228F5D9032014E10120FFF730
:10055C0001FF236813F0040F00F09680274BDB6932
:10056C0013F0805F34D1254BDA6942F08052DA61A6
:10057C00DB6903F080530193019B0125214B1B6820
:10058C0013F4807F26D0E368012B3DD0002B53D190
:10059C0003F1804303F504331A6A22F001021A6254
:1005AC001A6A22F004021A6233E0154B0022C3F8D7
:1005BC008024FFF7B5FE0546104B5B6A13F0020F63
:1005CC00C7D0FFF7ADFE401B0228F5D90320D2E0BF
:1005DC000025D3E70B4A136843F480731360FFF7CD
:1005EC009FFE0646074B1B6813F4807FCBD1FFF7A9
:1005FC0097FE801B6428F5D90320BCE00010024054
:10060C0000004242007000405F4A136A43F001034D
:10061C001362E36833B3FFF783FE06465A4B1B6A3B
:10062C0013F0020F2FD1FFF77BFE801B41F28833B2
:10063C009842F3D903209EE0052B09D0524B1A6A3D
:10064C0022F001021A621A6A22F004021A62E0E72E
:10065C004D4B1A6A42F004021A621A6A42F0010205
:10066C001A62D6E7FFF75CFE0646474B1B6A13F08F
:10067C00020F08D0FFF754FE801B41F288339842DA
:10068C00F3D9032077E0E5B9E369002B72D03E4A39
:10069C00526802F00C02082A56D0022B17D03B4BA2
:1006AC0000221A66FFF73CFE0446374B1B6813F01A
:1006BC00007F47D0FFF734FE001B0228F5D903203A
:1006CC0059E0314AD36923F08053D361DCE72F4BD7
:1006DC0000221A66FFF724FE05462B4B1B6813F00D
:1006EC00007F06D0FFF71CFE401B0228F5D9032023
:1006FC0041E0236AB3F5803F1AD023494B6823F4B9
:10070C007413226A606A024313434B601F4B01222D
:10071C001A66FFF705FE04461B4B1B6813F0007F9F
:10072C000ED1FFF7FDFD001B0228F5D9032022E0B6
:10073C00154A536823F40033A1680B435360DCE77C
:10074C00002018E0002016E0012B16D00E4B5B6841
:10075C0003F48031226A914211D103F47013626A5E
:10076C0093420ED1002006E001207047012002E0E8
:10077C00012000E0002002B070BD0120FBE7012049
:10078C00F9E70120F7E700BF0010024000004242E9
:10079C000F4B5B6803F00C02082A01D00D48704720
:1007AC00C3F383420C49885C13F4803F0BD0084B95
:1007BC005B68C3F34043094AD35C064A02FB00F072
:1007CC00B0FBF3F07047064B03FB00F0704700BF23
:1007DC000010024000127A00240D0008200D0008C1
:1007EC0000093D00002800F0A08070B50D460446BD
:1007FC00524B1B6803F007038B420BD24F4A136812
:10080C0023F007030B431360136803F007038B42B9
:10081C0040F08D80236813F0020F17D013F0040FF3
:10082C0004D0474A536843F4E0635360236813F0E1
:10083C00080F04D0424A536843F460535360404A53
:10084C00536823F0F003A1680B435360236813F043
:10085C00010F31D06368012B20D0022B25D0384AF0
:10086C00126812F0020F64D035494A6822F0030274
:10087C0013434B60FFF754FD0646314B5B6803F0A6
:10088C000C036268B3EB820F16D0FFF749FD801B97
:10089C0041F288339842F0D9032045E0284A126887
:1008AC0012F4003FE0D101203EE0254A126812F01C
:1008BC00007FD9D1012037E0204B1B6803F00703E0
:1008CC00AB420AD91D4A136823F007032B4313606C
:1008DC00136803F00703AB422DD1236813F0040F08
:1008EC0006D0174A536823F4E063E1680B43536066
:1008FC00236813F0080F07D0114A536823F4605390
:10090C00216943EAC1035360FFF742FF0C4B5B685C
:10091C00C3F303130B4AD35CD8400B4B18600B4B3F
:10092C001868FFF7B9FC002070BD0120704701204A
:10093C00FAE70120F8E70120F6E700BF00200240AB
:10094C0000100240340D00080800002004000020B4
:10095C0070B582B00024A4469EE07C4DAB4214D00E
:10096C000CD8A5F58015AB420FD005F57025AB4220
:10097C000BD0A5F58015AB421FD106E0744DAB42F0
:10098C0003D005F58035AB4217D18B68A3B1012B91
:10099C000DD04261082410E0CC680EE0CC68043421
:1009AC000BE0CC68083408E0CC680C3405E002613C
:1009BC00082402E0002400E00424BEF1FF0F37D825
:1009CC0006464FEA8C0233680F25954023EA05034F
:1009DC0004FA02F2134333604B6813F0805F59D072
:1009EC005C4B9A6942F001029A619B6903F0010326
:1009FC000193019B4FEA9C02951C574B53F82560C1
:100A0C000CF00305AD000F23AB4026EA0306534B55
:100A1C00984214D003F58063984279D003F5806333
:100A2C00984277D003F58063984206D0042307E000
:100A3C00061DACF108029200C5E7032300E0002379
:100A4C00AB4033430232444D45F822304B6813F42B
:100A5C00801F61D0424A936843EA0E0393604B684F
:100A6C0013F4001F5ED03E4AD36843EA0E03D360F2
:100A7C004B6813F4003F5BD0394A536843EA0E03CA
:100A8C0053604B6813F4803F58D0354A136843EADF
:100A9C000E0313600CF1010C0B6833FA0CF253D0FB
:100AAC00012202FA0CF203EA020E32EA0303F1D13C
:100ABC004B68122B3FF651AF122B3FF67EAF01A5C0
:100ACC0055F823F097090008A5090008AF0900089C
:100ADC00C1090008C7090008C7090008C7090008B0
:100AEC00C7090008C7090008C7090008C70900089A
:100AFC00C7090008C7090008C7090008C70900088A
:100B0C00C7090008C7090008A9090008B5090008A9
:100B1C00012395E7022393E7114A936823EA0E0316
:100B2C0093609CE70E4AD36823EA0E03D3609FE7D9
:100B3C000B4A536823EA0E035360A2E7084A136872
:100B4C0023EA0E031360A5E702B070BD000022106B
:100B5C00000031100010024000000140000801406C
:100B6C00000401400AB1016170470904016170473A
:100B7C00C36801EA030221EA030141EA024101616F
:100B8C0070470000002808DB0901C9B200F1604081
:100B9C0000F5614080F80013704700F00F00090168
:100BAC00C9B2014B1954704714ED00E000B500F0C8
:100BBC000700C0F1070CBCF1040F28BF4FF0040C68
:100BCC00031D062B0ED9C31E4FF0FF3E0EFA0CF080
:100BDC0021EA000199400EFA03FE22EA0E0241EAD4
:100BEC00020000BD0023EFE7074AD36823F4E0635B
:100BFC001B041B0C000200F4E060034343F0BF63D2
:100C0C0043F40033D360704700ED00E010B50446A8
:100C1C00054BD868C0F30220FFF7C8FF01462046F9
:100C2C00FFF7B0FF10BD00BF00ED00E00138B0F1E0
:100C3C00807F0BD24FF0E0235861054AF02182F8F7
:100C4C0023100020986107221A6170470120704719
:100C5C0000ED00E070470000FFF7FCFF0B480C496B
:100C6C000C4A002302E0D458C4500433C4188C42FC
:100C7C00F9D3094A094C002301E013600432A24263
:100C8C00FBD300F017F8FFF7C5FA704700000020FF
:100C9C000C0000204C0D00080C0000202C00002043
:100CAC00FEE703460244934200D1704703F8011B50
:100CBC00F9E7000070B500260C4D0D4B5B1B9C102A
:100CCC00A64209D1002600F019F80A4D0A4B5B1B0D
:100CDC009C10A64205D170BD55F8043B98470136CF
:100CEC00EEE755F8043B98470136F2E7440D00084F
:100CFC00440D0008440D0008480D0008F8B500BF6D
:100D0C00F8BC08BC9E467047F8B500BFF8BC08BCE0
:040D1C009E46704738
:100D20000102000002030405060708090A0B0C0D66
:100D30000E0F10100000000000000000010203046C
:040D40000607080991
:040D44003101000871
:040D48000D01000891
:0C0D4C00010000001000000000127A00FE
:0400000508000C657E
:00000001FF
